S01500005357492D5053552D484B2D444D2E7372656379
S113000056C200007DC200007BC2000079C200001D
S113001077C2000075C2000073C2000071C2000004
S11300206FC200006DC200006BC2000069C2000014
S113003067C2000065C2000063C2000061C2000024
S11300405FC200005DC200005BC2000059C2000034
S113005057C2000055C2000053C2000051C2000044
S11300604FC200004DC200004BC2000049C2000054
S113007047C2000045C2000043C2000041C2000064
S11300803FC200003DC200003BC2000039C2000074
S113009037C2000035C2000033C2000031C2000084
S11300A02FC200002DC200002BC2000029C2000094
S11300B027C2000025C2000023C2000021C20000A4
S11300C01FC200001DC200001BC2000019C20000B4
S11300D017C2000015C2000013C2000011C20000C4
S11300E00FC20000000000000000003300340032A2
S11300F000052D002E002C00002D002E002C0001E8
S11301002D002E002C00022D002E002C00032D00AB
S11301102E002C00042D002E002C00052D002E0096
S11301202C00062D002E002C00070000000000000B
S113013000000000000000000101020100010001B4
S11301400102010001010101020100010201010299
S11301500100010301010201000104010102010087
S1130160010501010201000106240025002300000D
S1130170240025002300012400250023000224007C
S11301802500230003240025002300042400250067
S11301902300052400250023000624002500230055
S11301A00701010201000107330034003200033368
S11301B000340032000400000000000000000000D1
S11301C0000000000000000000000000000000002B
S11301D00000000000000000000A010B01090100FA
S11301E00A010B010901010A010B010901020A01BB
S11301F00B010901030A010B010901040A010B01A6
S11302000901050A010B010901060A010B01090193
S1130210072A002B002900002A002B002900012AAC
S1130220002B002900022A002B002900032A002B9E
S1130230002900042A002B002900052A002B00298C
S113024000062A002B002900073300340032000086
S11302503300340032000127002800260000270064
S11302602800260001270028002600022700280075
S11302702600032700280026000427002800260063
S1130280052700280026000627002800260007006E
S11302900000000000000000000000000004010550
S11302A00103010004010501030101040105010327
S11302B00102040105010301030401050103010412
S11302C004010501030105040105010301063300CE
S11302D03400320002210022002000072100220005
S11302E02000062100220020000521002200200019
S11302F0042100220020000321002200200002210A
S11303000022002000012100220020000004010539
S113031001030107000000000000000000000000CD
S1130320000007010801060107070108010601068C
S11303300701080106010507010801060104070178
S1130340080106010307010801060102070108016B
S113035006010107010801060100300031002F00E9
S113036007300031002F0006300031002F00053027
S11303700031002F0004300031002F000330003121
S1130380002F0002300031002F0001300031002F17
S11303900000000000000000000000000000000059
S11303A0000000000000006E616E00696E660000CF
S11303B0407A10F35A00A0724E18090010A5D4E830
S11303C00000E87648170000E40B54020000CA9AC3
S11303D03B000000E1F50500008096980000004015
S11303E0420F000000A0860100000010270000005A
S11303F000E803000000006400000000000A0000A0
S11304000000000100000000002C76D888DC674F53
S11304100823DFC1DFAE59E1B1B796E5E3E453C683
S11304203AE651997696E8E6C28426EB898C9B627B
S1130430ED407C6FFCEFBC9C9F40F2BAA56FA5F425
S113044090055A2AF75C936B6CF9676DC11BFCE04D
S1130450E40D47FEF520E6B500D0ED902E030094A0
S11304603577050080841E080000204E0A00000035
S1130470C80C333333330F986E12831141EF8D213F
S113048014893BE65516CFFEE6DB18D1844B381BA6
S1130490F77C1D901DA4BBE424203284725E22816B
S11304A000C9F124ECA1E53D27001D04C209112473
S11304B01FBECFEFD1E2DEBFCDBF13E0A0E0B2E0BC
S11304C0EAE2FEE100E00BBF02C007900D92A837FC
S11304D0B107D9F726E0A8E7B3E001C01D92A8331D
S11304E0B207E1F712E0C7E5D2E004C02197FE01AC
S11304F00E944E0DC535D107C9F77DD60C94130F54
S11305007FCD0895FC0181509F4F1192E817F907A0
S1130510E1F70895F7CF08951092C50081E0809324
S1130520C40088E18093C10086E08093C2008FEF0D
S113053084B92F9A2FEF81EE94E0215080409040AF
S1130540E1F700C000002F9808950F931F93CF93F5
S1130550DF93CDB7DEB70F8118859E01255F3F4F2E
S113056049855A8562E370E0C8010E947D0ED80176
S11305702C91222381F00F5F1F4FE0ECF0E046EC5A
S113058050E0908195FFFDCFDA012C93D8012D9195
S11305908D012111F6CFDF91CF911F910F91089515
S11305A0BBDFC0E0D2E003E815E00F2EF0E2EF2E4F
S11305B0F2E0FF2EF02D2F9883E894E0A2DFBC0137
S11305C08EE794E07DD180937D0483E894E099DF05
S11305D0BC018EE794E050D1882309F428C12F9AF6
S11305E0A880B980D0907D0483E894E08ADF9501E7
S11305F04D2DBC018EE794E0D8D1882369F02FE714
S113060088E391E0215080409040E1F700C0000071
S11306108EE294E08BD307C1A884B984D0907D0482
S113062083E894E06EDF95014D2DBC018EE794E0E4
S1130630BCD1882329F1898D8F93888D8F931F9343
S11306400F9383DF8B8D8F938A8D8F931F930F93DB
S11306507CDF8D8D8F938C8D8F931F930F9375DF1C
S11306608F8D8F938E8D8F931F930F936EDF8DB726
S11306709EB740960FB6F8949EBF0FBE8DBFD3C0F1
S1130680AC80BD80D0907D0483E894E03ADF95018E
S11306904D2DBC018EE794E088D1882309F457C01E
S11306A083E894E02EDFBC0188E793E03FD49923EC
S11306B00CF438C083E894E024DFBC0188E793E0BD
S11306C035D40B977CF58D818F938C818F931F93F9
S11306D00F933BDF8EE794E04ED183E894E011DF83
S11306E0BC0188E793E022D49F938F93FF92EF920B
S11306F01F930F932ADF8EE794E0FAD083E894E007
S113070000DFBC0188E793E011D4682F88E793E009
S1130710BCD38DB79EB70A960FB6F8949EBF0FBE92
S11307208DBF81C083E894E0ECDEBC0188E793E0F0
S1130730FDD30B9734F06A897B898EE794E06FD1FF
S113074072C0688979898EE794E069D16CC0AE8003
S1130750BF80D0907D0483E894E0D3DE95014D2DD5
S1130760BC018EE794E021D1882309F457C083E8C3
S113077094E0C7DEBC0188E793E0D8D399230CF456
S113078038C083E894E0BDDEBC0188E793E0CED3B3
S11307900B977CF58F818F938E818F931F930F938B
S11307A0D4DE8EE794E0E7D083E894E0AADEBC01CF
S11307B088E793E0BBD39F938F93FF92EF921F93AD
S11307C00F93C3DE8EE794E093D083E894E099DE40
S11307D0BC0188E793E0AAD3682F88E793E070D33D
S11307E08DB79EB70A960FB6F8949EBF0FBE8DBF05
S11307F01AC083E894E085DEBC0188E793E096D3D1
S11308000B9734F06A897B898EE794E008D10BC09A
S1130810688979898EE794E002D105C06A857B8571
S11308208EE794E0FCD083E894E06CDEC4CE6C8563
S11308307D858EE794E0F3D0BECE82E895E009D1C1
S113084083E894E067DE8EE794E00AD08EE294E0D9
S113085015D284E893E0AFD188E793E009C3089503
S1130860FC0186E693E0918380838AE0828380E2C0
S113087083838CE284830895EF92FF920F931F93F6
S1130880CF93DF931F92CDB7DEB78C017B01CE01EE
S11308900196DFD0F80160817181CE01019628D1E3
S11308A0F80140815181282FB701CE010196D2D0A1
S11308B00F90DF91CF911F910F91FF90EF900895CA
S11308C0CF93DF93DB01FC01228180E0E0ECF0E0D8
S11308D0C6ECD0E090819923ECF798819D938F5FCB
S11308E0291711F08F3FB1F78150DF91CF9108950F
S11308F0FC019281E0ECF0E0808185FFFDCF9093D4
S1130900C6000895AF92BF92CF92DF92FF920F93E9
S11309101F93CF93DF931F92CDB7DEB76C01CE0147
S1130920019697D0F12C00EC10E00F2EF6ECAF2ED0
S1130930B12CF02D0DC0D601ED91FC91EF0DF11D00
S11309408081F801908195FFFCCFD5018C93F394BD
S1130950F60160817181CE010196CAD0F81658F370
S11309600F90DF91CF911F910F91FF90DF90CF9067
S1130970BF90AF900895FC019381E0ECF0E080819A
S113098085FFFDCF9093C6000895FC0183810895EF
S1130990FC019481E0ECF0E0808185FFFDCF909331
S11309A0C6000895FC01848108959F92AF92BF927E
S11309B0CF92DF92EF92FF920F931F93CF93DF9327
S11309C01F92CDB7DEB78C017B01A42E6901CE0145
S11309D001963FD0B601CE0101968AD0982EF80137
S11309E04381B701CE010196B1D0BB24B3949812D0
S11309F0B12CF80103812A2DA601B701CE0101967D
S1130A004BD08B210F90DF91CF911F910F91FF90CD
S1130A10EF90DF90CF90BF90AF909F9008950F9389
S1130A201F93CF93DF93EC01162F072F6BDF0F93E8
S1130A301F9385EB95E09F938F9387DDCE0158DF5D
S1130A400F900F900F900F90DF91CF911F910F9106
S1130A50089508952223D1F0FB019081FA01808149
S1130A60981316C0FB013196DA011196215030E03B
S1130A702F5F3F4F620F731F04C091918D919813A4
S1130A8009C0E617F707C9F781E0089581E00895E2
S1130A9080E0089580E008950F932223F1F0FB0194
S1130AA080818017E1F0FA01908189131AC0DA017C
S1130AB01196FB013196215030E02F5F3F4F620FBA
S1130AC0731F06C08191801771F09D9189130DC029
S1130AD0E617F707B9F781E009C081E007C081E0B4
S1130AE005C080E003C081E001C080E00F9108955B
S1130AF0FB01808181508E3F50F480E08F5FFB01C9
S1130B00E80FF11D908191509E3FC0F3089580E05D
S1130B100895FB01E20FF11D80818F3FA9F0882326
S1130B2029F084130AC007C0911103C08FEF820F0C
S1130B300895941302C0822F08952F5FFB01E20FE2
S1130B40F11D90819F3F81F7822F089520E0E1CF2E
S1130B500895605381E06A3008F080E0089580EDE4
S1130B60860F8A3008F080E008950F931F93CF9387
S1130B70DF93EC018C010F5F1F4FC801FCD2CE0143
S1130B80F1D265E1C80115D3FE01E658FF4FDE013D
S1130B90A65BBF4FCE0186569F4F2FEF37E02193C0
S1130BA031932D933D93E817F907C9F7DF91CF915E
S1130BB01F910F910895CF93DF93EC01DAD2CE0108
S1130BC00196E2D2CE0184964BDE83E292E09AA7AC
S1130BD089A78EE292E09CA78BA789E392E09EA767
S1130BE08DA786E492E098AB8FA784E592E09AAB58
S1130BF089AB83E692E09CAB8BAB8AE792E09EAB39
S1130C008DAB86E892E098AF8FAB85E992E09AAF1E
S1130C1089AF8DEA92E09CAF8BAF82E392E09EAF06
S1130C208DAFFE01FF9687EC92E09183808332962C
S1130C308DEC92E09183808332968BEF92E09183E6
S1130C40808332968AE293E091838083329688E5AA
S1130C5093E091838083CE01875B9F4FFADECE01C0
S1130C6084DFDF91CF910895CF93DF93EC01079652
S1130C7082D2CE01EAD1DF91CF910895CF93DF9351
S1130C80EC01E1D1CE0107967FD2CE018A96E8DD50
S1130C9083E292E098AB8FA78EE292E09AAB89ABA5
S1130CA089E392E09CAB8BAB86E492E09EAB8DAB88
S1130CB084E592E098AF8FAB83E692E09AAF89AF78
S1130CC08AE792E09CAF8BAF86E892E09EAF8DAF4F
S1130CD0FE01FF9685E992E09183808332968DEA46
S1130CE092E091838083329682E392E091838083C1
S1130CF0329687EC92E09183808332968DEC92E079
S1130D009183808332968BEF92E091838083329635
S1130D108AE293E091838083329688E593E091831D
S1130D208083CE01A1DFDF91CF9108957F928F92CE
S1130D309F92AF92BF92CF92DF92EF92FF920F9366
S1130D401F93CF93DF934C01FC0180A98F9387A558
S1130D508F9387EE95E09F938F93F7DB6401FAE21C
S1130D60CF0ED11CC60107DE0F900F900F900F908D
S1130D70D0E1540187E0A80EB11C712C0F2EFBE6C4
S1130D80EF2EF3E0FF2EF02D07EE15E06D2FC501D9
S1130D9010D2C72DEFECF7E03197F1F700C0000057
S1130DA06C2F882D992D52D18FE097E20197F1F79E
S1130DB000C00000DF3311F4C330B9F06C2F882D6C
S1130DC0992D44D19F938F93FF92EF921F930F938A
S1130DD0BCDBC601DDDDCF5F0F900F900F900F904D
S1130DE00F900F90C430B1F615C063E0882D992D93
S1130DF02DD19F938F93FF92EF921F930F93A5DBB7
S1130E00C601B9DDDF5F0F900F900F900F900F9028
S1130E100F90BCCFDF5FD03309F0B8CF8EE693E0FC
S1130E209F938F9387EE95E09F938F938EDB0F9024
S1130E300F900F900F90DF91CF911F910F91FF9022
S1130E40EF90DF90CF90BF90AF909F908F907F9066
S1130E5008958FEF87B981B9109811981298139853
S1130E6014981598169817984098419842980895A0
S1130E70CF93DF93EC010696F3DCCE010B96E9DD0C
S1130E80CE01E7DFDF91CF910895683058F422B1A5
S1130E9081E090E002C0880F991F6A95E2F7822BE7
S1130EA082B90895603158F428B1685081E090E027
S1130EB002C0880F991F6A95E2F7822B88B90895BA
S1130EC0683060F422B181E090E002C0880F991F7D
S1130ED06A95E2F78095822382B90895603160F4BF
S1130EE028B1685081E090E002C0880F991F6A958C
S1130EF0E2F78095822388B908954423A1F070E035
S1130F00423068F09B01C901869F9001879F300D94
S1130F10969F300D112441504130A9F701C09B0127
S1130F20822F932F089581E090E008952F923F92AD
S1130F304F925F926F927F928F929F92AF92BF92E5
S1130F40CF92DF92EF92FF920F931F93CF93DF9391
S1130F506C014B013C0126E0620E711CC30115DDDE
S1130F6056013BE0A30EB11C20E0482FB401C5019B
S1130F70D0DD22242394280EC30107DD222D482F1F
S1130F80B401C501C6DD55245A94580E521408F410
S1130F9042C0F60111821082312C412C8401050DCE
S1130FA0111DF8016081C501D4DD8823E9F0C32D4A
S1130FB0D0E0CC0FDD1FCC0DDD1DE880F980F801F9
S1130FC06081C501CCDD182F442D6AE0C60195DF90
S1130FD09C01129FC001139F900D1124E80EF91E6D
S1130FE0F982E882439410C0F801C081C301DADCBD
S1130FF0C81314C03394E32DF0E0EE0FFF1FEC0D83
S1131000FD1D11821082412C5A94521438F6F601B7
S11310108081918105C08FEF9FEF02C08EEF9FEF1B
S1131020DF91CF911F910F91FF90EF90DF90CF90C0
S1131030BF90AF909F908F907F906F905F904F90F4
S11310403F902F90089598C108950895EF92FF92CC
S11310501F93CF93DF9300D000D0CDB7DEB77C01D0
S1131060162F8FEF84B9289A91E099839A831B8273
S11310709C83BE016F5F7F4F8CE196E046D1289838
S1131080612F6770660F660F660FC70177D1182F3F
S113109060E0C70173D1289A1F70212F30E0322FEE
S11310A02227A901482BCA010F900F900F900F908F
S11310B0DF91CF911F91FF90EF900895EF92FF92EF
S11310C00F931F93CF93DF9300D000D0CDB7DEB73B
S11310D07C01062F172F81E089831A821B821C82D0
S11310E0BE016F5F7F4F8CE196E00FD18FE080935C
S11310F01B06712F7F7070931A06F701808181306F
S113110019F480931B060CC0823019F480931B06DB
S113111007C0833019F480931B0602C010921B068B
S113112090911B06F0E19F9FC0011124672F682B4B
S113113060931A069FEF90931B06009319068CE1A7
S113114096E014D1609119068CE196E00FD10F90CE
S11311500F900F900F90DF91CF911F910F91FF90FF
S1131160EF90089522E0FC01208360E070E0A6CFB8
S11311700895F8CF08958FEF80BB889889988A984E
S11311808B988C988D980895CF93DF93EC0137D08A
S1131190CE01079634D0CE010E9631D0CE014596BD
S11311A02ED0CE014C962BD0CE01E5DFDF91CF912E
S11311B00895603408F06FE360FF02C08A9A01C0AA
S11311C08A9861FF02C08B9A01C08B9862FF02C0AB
S11311D08C9A01C08C9863FF02C08D9A01C08D98CF
S11311E064FF02C0889A01C0889865FF02C0899A8A
S11311F0089589980895D4D980E090E008950895D9
S1131200CF93DF93EC01872F97E0699FB0011124FE
S1131210FB01E651FF4FE491EE83FB01EC51FF4FDC
S1131220E491AE2FB0E0B983A883FB01E851FF4FEE
S1131230E491F0E0FD83EC83FB01EA51FF4F6491FC
S113124070E07B836A8381111AC04C9181E090E045
S11312509C010E8002C0220F331F0A94E2F72095EE
S113126024232C93EA81FB8120810E8002C0880F05
S1131270991F0A94E2F780958223808333C08230D9
S1131280C9F44C9181E090E09C010E8002C0220FD1
S1131290331F0A94E2F7209524232C93EA81FB81DF
S11312A020810E8002C0880F991F0A94E2F7822BD6
S11312B0808318C04C9181E090E09C010E8002C0B4
S11312C0220F331F0A94E2F7242B2C93EA81FB812B
S11312D020810E8002C0880F991F0A94E2F780953E
S11312E082238083DF91CF910895CF93DF93EC0124
S11312F086DFCE01079683DFCE010E9680DFCE0116
S113130045967DDFDF91CF9108950F931F93CF937F
S1131310DF938C01EB0165E171E072DF66E170E05F
S1131320C80107966DDF64E171E0C8010E9668DFBD
S113133063E171E0C801459663DF9B81292F206535
S11313408981880F880F982F922B8881880F880FA6
S1131350880F892B2A8190E2299F90011124822BE6
S11313608CBDDF91CF911F910F9108956EBD0DB487
S113137007FEFDCF8EB5089542CF08958CE196E027
S1131380F5CF08958CE196E0B0CF08952F923F9267
S11313904F925F926F927F928F929F92AF92BF9281
S11313A0CF92DF92EF92FF920F931F93CF93DF932D
S11313B0CDB7DEB763970FB6F894DEBF0FBECDBFCF
S11313C06C014B012A01FC0117821682838181FF83
S11313D029C3AE014F5F5F4F3A01F6019381F401D7
S11313E093FD859193FF81914F01882309F416C3DE
S11313F0853239F493FD859193FF81914F018532B4
S113140031F4B60190E041D452012501E6CF10E059
S1131410F12C20E02032A0F48B3269F030F48032D9
S113142059F0833269F420612CC08D3239F0803355
S113143039F4216026C02260246023C0286021C0C2
S113144027FD27C030ED380F3A3078F426FF06C068
S1131450FAE01F9F300D1124132F13C04AE0F49EAD
S1131460300D1124F32E20620CC08E3221F426FD9F
S1131470D5C2206406C08C3611F4206802C08836B8
S113148041F4F40193FD859193FF81914F01811102
S1131490C1CF9BEB980F933018F42061805E06C097
S11314A09BE9980F933008F064C12F7E26FF16E065
S11314B02F73322E853619F42064322E08C08636F6
S11314C021F4F22FF0683F2E02C01111115037FEA3
S11314D007C01C3350F4EE24E394E10E27E00BC064
S11314E0183038F027E017E005C027E04CE3E42E7D
S11314F002C0212FE12C520144E0A40EB11CF201E0
S113150060817181828193810E2DA301D0D22C013F
S1131510098100FF02C003FF07C031FC08C032FE8E
S113152009C030E2232E07C02DE2222E04C09BE224
S1131530292E01C0212C802F8C7019F0211051C24A
S11315408DC237FE0FC0E40C04FF04C08A818133CE
S113155009F4EA941E1474F5F8E0FE1578F588E0B1
S1131560E82E2CC036FC2AC0812F90E08415950506
S11315709CF02CEF42162FEF520674F0432D406876
S1131580342E0AC0E2E0F0E0EC0FFD1FE10FF11D84
S11315908081803319F411501111F4CF37FE0EC03D
S11315A0EE24E394E10E812F90E0481659062CF4C2
S11315B0141904C0EE24E39401C010E037FE06C001
S11315C01414150434F4C201019605C085E090E0BA
S11315D002C081E090E021100196112331F0212F07
S11315E030E02F5F3F4F820F931F2F2D30E0821783
S11315F0930714F4F81A01C0F12C832D897041F477
S1131600FF2031F0B60180E290E03FD3FA94F8CFA6
S1131610222021F0B601822D90E037D333FC08C09C
S1131620FF2031F0B60180E390E02FD3FA94F8CF95
S113163037FE58C0942D852D57FE02C090E080E0FF
S1131640292E382E20E030E0A2014E1951095D8781
S11316504C87A201421953095F874E87612F70E0BE
S113166044275527461B570B598B488B5FEF25168C
S1131670350641F4B6018EE290E02A8B3B8B05D30C
S11316803B892A89421453046CF04C855D854215CC
S1131690530544F4EE85FF85E20FF31FE60DF71DB5
S11316A0818101C080E351E0251A31082F5F3F4F4B
S11316B0488959892416350644F0B60190E02A8BEE
S11316C03B8BE3D22A893B89D1CF2414350439F4E6
S11316D09A81963318F4953311F404FF81E3B6012B
S11316E090E045C08A81813309F00F7EB60190E015
S11316F0CCD2111105C034FC16C085E690E015C0AB
S1131700B6018EE290E0C1D282E0EE24E394E80ECA
S1131710F301E80FF11D8081B60190E0B6D21150BB
S11317208E2D99F7E8CF85E490E0B601AED257FC50
S113173005C04114510439F404FF05C05194419487
S113174051088DE201C08BE2B60190E09ED280E3A5
S11317509AE0491651042CF08F5F5AE0451A51085B
S1131760F7CFB60190E091D2B601C201C0968DD2F6
S11317704CC1833631F0833779F0833509F054C096
S113178020C05201E2E0AE0EB11CF20180818983D7
S113179001E010E0230113C05201F2E0AF0EB11CCE
S11317A0F2014080518026FF03C0612F70E002C027
S11317B06FEF7FEFC2012A8B5DD28C012A892F77CC
S11317C014C05201F2E0AF0EB11CF201408051800E
S11317D026FF03C0612F70E002C06FEF7FEFC201EC
S11317E02A8B3DD28C012A892068322E23FD18C011
S11317F08F2D90E00817190798F4B60180E290E065
S113180044D2FA94F5CFF20137FC859137FE8191E9
S11318102F01B60190E039D2F110FA940150110968
S11318200115110581F7F1C0843611F0893651F59F
S1131830520127FF09C0F4E0AF0EB11CF201608130
S11318407181828193810AC0F2E0AF0EB11CF20172
S113185060817181072E000C880B990B2F76322E34
S113186097FF09C090958095709561957F4F8F4F34
S11318709F4F2068322E2AE030E0A30176D2E82E72
S1131880E6183EC0022F853721F40F7E2AE030E0AF
S11318901DC0097F8F3691F018F4883559F0BEC009
S11318A0803719F0883711F0B9C0006104FF09C00E
S11318B0046007C024FF08C0066006C028E030E0CA
S11318C005C020E130E002C020E132E0520107FF10
S11318D009C0F4E0AF0EB11CF20160817181828114
S11318E0938108C0F2E0AF0EB11CF20160817181F6
S11318F080E090E0A30139D2E82EE6180F77302E6D
S113190036FE0BC0332D3E7FE11650F434FE0AC080
S113191032FC08C0332D3E7E05C00E2D332D03C08E
S11319200E2D01C0012F34FF0CC0FE01EE0DF11D80
S11319308081803311F4397E08C032FF05C00E5F08
S113194004C0832F867809F00F5F33FD12C030FF87
S113195006C01E2D0F1518F41F0D101B0F2D0F158B
S113196060F4B60180E290E03B8B8FD10F5F3B893E
S1131970F6CF0F1510F4F01A01C0F12C34FF11C08A
S1131980B60180E390E03B8B80D13B8932FF16C0E7
S113199031FD03C088E790E002C088E590E0B6011D
S11319A00CC0832F867851F031FF02C08BE201C056
S11319B080E237FD8DE2B60190E067D1E11630F4A4
S11319C0B60180E390E061D11150F8CFEA94F301BD
S11319D0EE0DF11D8081B60190E057D1E110F6CFF4
S11319E014C0F4E0FF1548F584E0F81A33FE1DC076
S11319F0211024C003FF27C007EA13E0F32DF07180
S1131A003F2EF8018491811121C0FF2009F4FDCCFF
S1131A10B60180E290E039D1FA94F7CFF6018681DD
S1131A20978123C08FEF9FEF20C0B60180E290E042
S1131A302CD1FA94F110F9CFDBCFF12CB601822D21
S1131A4090E023D1D7CF0BEA13E0D8CF31108052E6
S1131A50B60190E01AD10F5F1F4FD3CF23E02F15AB
S1131A6010F483E0C2CFF12CC5CF63960FB6F8947F
S1131A70DEBF0FBECDBFDF91CF911F910F91FF90BD
S1131A80EF90DF90CF90BF90AF909F908F907F901A
S1131A906F905F904F903F902F900895EE0FFF1F2F
S1131AA00024001C0BBE0790F691E02D0994283009
S1131AB008F027E03327DA01990F311D87FD916083
S1131AC000966105710539F432602E5F3D9330E371
S1131AD02A95E1F708959F3F30F08038710561053C
S1131AE009F03C5F3C5F3D93913008F08068911DA4
S1131AF0DF93CF931F930F93FF92EF92192F987F49
S1131B009695E92F96959695E90FFF27E75FFB4F8A
S1131B1099273327EE24FF24A701E70105900894B1
S1131B20079428F4360FE71EF81E491F511D660F4F
S1131B30771F881F991F0694A1F70590079428F42E
S1131B40E70EF81E491F561FC11D770F881F991FE6
S1131B50661F0694A1F70590079428F4F80E491F10
S1131B60561FC71FD11D880F991F661F771F069424
S1131B70A1F70590079420F4490F561FC71FD81FDB
S1131B80990F661F771F881F0694A9F784911095F3
S1131B90177041F0D695C79557954795F794E794F4
S1131BA01A95C1F7EFEAF3E0689415901591359111
S1131BB06591959105907FE27395E118F10A430BC5
S1131BC0560BC90BD009C0F7E10CF11E431F561F79
S1131BD0C91FD01D7EF4703311F48A95E6CFE894C2
S1131BE0015030F0080F0AF40027021708F4202FE0
S1131BF02395022F7A3328F079E37D932A95E9F728
S1131C0010C07D932A9589F6069497956795379524
S1131C1017951794E118F10A430B560BC90BD00919
S1131C2098F023957E9173957A3308F070E37C9352
S1131C302013B8F77E9170617D9330F0839571E342
S1131C407D9370E32A95E1F71124EF90FF900F91B3
S1131C501F91CF91DF91992787FD90950895FC01FD
S1131C600590615070400110D8F7809590958E0FC3
S1131C709F1F0895FC016150704001900110D8F736
S1131C80809590958E0F9F1F08950F931F93CF9368
S1131C90DF93FB01238121FD03C08FEF9FEF28C059
S1131CA022FF16C04681578124813581421753078C
S1131CB044F4A081B1819D012F5F3F4F3183208384
S1131CC08C93268137812F5F3F4F3783268310C043
S1131CD0EB01092F182F0084F185E02D0995892B3C
S1131CE0E1F68E819F8101969F838E83812F902FB1
S1131CF0DF91CF911F910F9108950F931F93CF936D
S1131D00DF93CDB7DEB72E970FB6F894DEBF0FBEC4
S1131D10CDBF8C01CA0146E04C831A83098377FF47
S1131D2002C060E070E8FB013197FE83ED83A901F6
S1131D30BC01CE0101962ADB4D815E8157FD0AC0AC
S1131D402F813885421753070CF49A01F801E20FEA
S1131D50F31F10822E960FB6F894DEBF0FBECDBFD0
S1131D60DF91CF911F910F910895FA01AA2728308E
S1131D7051F1203181F1E8946F936E7F6E5F7F4F54
S1131D808F4F9F4FAF4FB1E03ED0B4E03CD0670FD0
S1131D90781F891F9A1FA11D680F791F8A1F911D23
S1131DA0A11D6A0F711D811D911DA11D20D009F473
S1131DB068943F912AE0269F11243019305D3193B5
S1131DC0DEF6CF010895462F4770405D4193B3E09E
S1131DD00FD0C9F7F6CF462F4F70405D4A3318F045
S1131DE0495D31FD4052419302D0A9F7EACFB4E0F6
S1131DF0A6959795879577956795BA95C9F70097AE
S1131E006105710508959B01AC010A2E069457954E
S1131E10479537952795BA95C9F7620F731F841FA5
S10D1E20951FA01D0895F894FFCF4C
S1131E2A23022E0239024602540263027A0286020D
S1131E3A9502AD023202C702CD02FB022A035803FD
S1131E4A2569007B23407D476574414443007B2315
S1131E5A407D536574444143007B23407D456E6154
S1131E6A626C655357007B23407D44697361626CDD
S1131E7A655357007B23407D4765745665727369C1
S1131E8A6F6E004572726F7220556E646566696E74
S1131E9A6564436F6D6D616E64004572726F722082
S1131EAA4672616D65004572726F7220436865639C
S1131EBA6B73756D004572726F7220496E76616C30
S1131ECA6964506172616D657465727300457272FA
S1131EDA6F7220506172616D657465724F75744FCB
S1131EEA6652616E6765005365745357004A5549D3
S1131EFA43452F5357492F5053552F484B2F444D81
S1131F0A0A4547534520754320536F6674776172B7
S1131F1A650A56657273696F6E3A00302E320A4446
S1131F2A6174653A20323031372D30342D31390A13
S1131F3A417574686F723A2050696F7472204B75D8
S1131F4A6C69676F77736B690A00436F6D70616EB2
S1131F5A793A2053706163652052657365617263CF
S1131F6A682043656E74726520506F6C69736820CB
S1131F7A41636164656D7900206F66205363696506
S1131F8A6E6365730A007B23407D002575004368F0
S10B1F9A65636B53756D0A00C9
S9030000FC
