S01800005357492D5053552D424941532D444D312E73726563B9
S113000056C200007BC2000079C2000077C2000023
S113001075C2000073C2000071C200006FC200000C
S11300206DC200006BC2000069C2000067C200001C
S113003065C2000063C2000061C200005FC200002C
S11300405DC200005BC2000059C2000057C200003C
S113005055C2000053C2000051C200004FC200004C
S11300604DC200004BC2000049C2000047C200005C
S113007045C2000043C2000041C200003FC200006C
S11300803DC200003BC2000039C2000037C200007C
S113009035C2000033C2000031C200002FC200008C
S11300A02DC200002BC2000029C2000027C200009C
S11300B025C2000023C2000021C200001FC20000AC
S11300C01DC200001BC2000019C2000017C20000BC
S11300D015C2000013C2000011C200000FC20000CC
S11300E00DC20000000000000000003300340032A4
S11300F000052D002E002C00002D002E002C0001E8
S11301002D002E002C00022D002E002C00032D00AB
S11301102E002C00042D002E002C00052D002E0096
S11301202C00062D002E002C00070000000000000B
S113013000000000000000000101020100010001B4
S11301400102010001010101020100010201010299
S11301500100010301010201000104010102010087
S1130160010501010201000106240025002300000D
S1130170240025002300012400250023000224007C
S11301802500230003240025002300042400250067
S11301902300052400250023000624002500230055
S11301A00701010201000107330034003200033368
S11301B000340032000400000000000000000000D1
S11301C0000000000000000000000000000000002B
S11301D00000000000000000000A010B01090100FA
S11301E00A010B010901010A010B010901020A01BB
S11301F00B010901030A010B010901040A010B01A6
S11302000901050A010B010901060A010B01090193
S1130210072A002B002900002A002B002900012AAC
S1130220002B002900022A002B002900032A002B9E
S1130230002900042A002B002900052A002B00298C
S113024000062A002B002900073300340032000086
S11302503300340032000127002800260000270064
S11302602800260001270028002600022700280075
S11302702600032700280026000427002800260063
S1130280052700280026000627002800260007006E
S11302900000000000000000000000000004010550
S11302A00103010004010501030101040105010327
S11302B00102040105010301030401050103010412
S11302C004010501030105040105010301063300CE
S11302D03400320002210022002000072100220005
S11302E02000062100220020000521002200200019
S11302F0042100220020000321002200200002210A
S11303000022002000012100220020000004010539
S113031001030107000000000000000000000000CD
S1130320000007010801060107070108010601068C
S11303300701080106010507010801060104070178
S1130340080106010307010801060102070108016B
S113035006010107010801060100300031002F00E9
S113036007300031002F0006300031002F00053027
S11303700031002F0004300031002F000330003121
S1130380002F0002300031002F0001300031002F17
S11303900000000000000000000000000000000059
S11303A0000000000000006E616E00696E660000CF
S11303B0407A10F35A00A0724E18090010A5D4E830
S11303C00000E87648170000E40B54020000CA9AC3
S11303D03B000000E1F50500008096980000004015
S11303E0420F000000A0860100000010270000005A
S11303F000E803000000006400000000000A0000A0
S11304000000000100000000002C76D888DC674F53
S11304100823DFC1DFAE59E1B1B796E5E3E453C683
S11304203AE651997696E8E6C28426EB898C9B627B
S1130430ED407C6FFCEFBC9C9F40F2BAA56FA5F425
S113044090055A2AF75C936B6CF9676DC11BFCE04D
S1130450E40D47FEF520E6B500D0ED902E030094A0
S11304603577050080841E080000204E0A00000035
S1130470C80C333333330F986E12831141EF8D213F
S113048014893BE65516CFFEE6DB18D1844B381BA6
S1130490F77C1D901DA4BBE424203284725E22816B
S11304A000C9F124ECA1E53D27009802250511249B
S11304B01FBECFEFD1E2DEBFCDBF13E0A0E0B2E0BC
S11304C0E0E8F4E100E00BBF02C007900D92A03415
S11304D0B107D9F725E0A0E4B3E001C01D92AD3522
S11304E0B207E1F712E0C7E5D2E003C02197FE01AD
S11304F038D6C535D107D1F7E5D1C0C781CDFC01C8
S113050081509F4F1192E817F907E1F70895F7CF4B
S113051008952F9A8FEC97E00197F1F700C000003F
S11305202F988FEC97E00197F1F700C00000F1CF0E
S11305308DE395E019D08EE394E0E9DF89E394E05C
S113054007D08AEE93E09AD080E493E034C0089513
S1130550FC0180E092E0918380838AE0828380E2E0
S113056083838CE28483089508950F931F93CF931C
S1130570DF93EC018C010F5F1F4FC80137D1CE010F
S11305802CD165E1C8015CD1FE01E658FF4FDE01C4
S1130590A65BBF4FCE0186569F4F2FEF37E02193C6
S11305A031932D933D93E817F907C9F7DF91CF9164
S11305B01F910F910895CF93DF93EC0115D1CE01D4
S11305C0019629D1CE018496C3DF85E092E09AA7F3
S11305D089A780E192E09CA78BA78BE192E09EA77C
S11305E08DA785E292E098AB8FA784E392E09AAB63
S11305F089AB84E492E09CAB8BAB83E592E09EAB49
S11306008DAB8AE692E098AF8FAB86E792E09AAF23
S113061089AF85E892E09CAF8BAF84E192E09EAF16
S11306208DAFFE01FF968FE192E091838083329635
S11306308DE992E09183808332968BEC92E09183F2
S1130640808332968AEF92E091838083329688E2A7
S113065093E091838083CE01875B9F4F85DFCE013A
S113066084DFDF91CF910895CF93DF93EC01079658
S1130670BDD0CE015DD0DF91CF910895CF93DF93AC
S1130680EC0154D0CE010796C6D0CE018A9660DF25
S113069085E092E098AB8FA780E192E09AAB89ABBA
S11306A08BE192E09CAB8BAB85E292E09EAB8DAB91
S11306B084E392E098AF8FAB84E492E09AAF89AF81
S11306C083E592E09CAF8BAF8AE692E09EAF8DAF5C
S11306D0FE01FF9686E792E091838083329685E857
S11306E092E091838083329684E192E091838083C7
S11306F032968FE192E09183808332968DE992E085
S11307009183808332968BEC92E09183808332963E
S11307108AEF92E091838083329688E293E091831A
S11307208083CE01A1DFDF91CF9108958CC108951C
S11307300895EF92FF920F931F93CF93DF9300D00E
S113074000D0CDB7DEB77C01062F172F81E0898357
S11307501A821B821C82BE016F5F7F4F81E495E089
S11307603BD18FE080934005712F7F7070933F05DC
S1130770F7018081813019F4809340050CC08230E8
S113078019F48093400507C0833019F48093400521
S113079002C01092400590914005F0E19F9FC00176
S11307A01124672F682B60933F059FEF90934005BA
S11307B000933E0581E495E040D160913E0581E4DB
S11307C095E03BD10F900F900F900F90DF91CF9158
S11307D01F910F91FF90EF90089522E0FC01208378
S11307E060E070E0A6CF0895F8CF08958FEF80936E
S11307F00A01EBE0F1E08081816080838081826086
S1130800808380818460808380818860808380810C
S1130810806180830895CF93DF93EC0157D0CE019C
S1130820079654D0CE010E9651D0CE0145964ED0A7
S1130830CE014C964BD0CE01D9DFDF91CF910895F4
S113084060FF06C0EBE0F1E080818160808305C039
S1130850EBE0F1E080818E7F808361FF06C0EBE0F6
S1130860F1E080818260808305C0EBE0F1E080816B
S11308708D7F808362FF06C0EBE0F1E080818460BD
S1130880808305C0EBE0F1E080818B7F808363FF90
S113089006C0EBE0F1E080818860808305C0EBE076
S11308A0F1E08081877F808364FF06C0EBE0F1E0A4
S11308B08081806180830895EBE0F1E080818F7E08
S11308C08083089526DE80E090E008950895CF9314
S11308D0DF93EC01872F97E0699FB0011124FB019E
S11308E0E651FF4FE491EE83FB01EC51FF4FE4919D
S11308F0AE2FB0E0B983A883FB01E851FF4FE49128
S1130900F0E0FD83EC83FB01EA51FF4F649170E05A
S11309107B836A8381111AC04C9181E090E09C0131
S11309200E8002C0220F331F0A94E2F7209524237D
S11309302C93EA81FB8120810E8002C0880F991FCD
S11309400A94E2F780958223808333C08230C9F40D
S11309504C9181E090E09C010E8002C0220F331F75
S11309600A94E2F7209524232C93EA81FB812081C9
S11309700E8002C0880F991F0A94E2F7822B8083AD
S113098018C04C9181E090E09C010E8002C0220FBF
S1130990331F0A94E2F7242B2C93EA81FB812081F4
S11309A00E8002C0880F991F0A94E2F78095822373
S11309B08083DF91CF910895CF93DF93EC0186DF9D
S11309C0CE01079683DFCE010E9680DFCE014596D9
S11309D07DDFDF91CF9108950F931F93CF93DF9322
S11309E08C01EB0165E171E072DF66E170E0C80142
S11309F007966DDF64E171E0C8010E9668DF63E17C
S1130A0071E0C801459663DF9B81292F20658981A8
S1130A10880F880F982F922B8881880F880F880F52
S1130A20892B2A8190E2299F90011124822B8CBD6D
S1130A30DF91CF911F910F9108956EBD0DB407FE04
S1130A40FDCF8EB5089542CF089581E495E0B4CFEB
S1130A5008952F923F924F925F926F927F928F925E
S1130A609F92AF92BF92CF92DF92EF92FF920F9339
S1130A701F93CF93DF93CDB7DEB763970FB6F89488
S1130A80DEBF0FBECDBF6C014B012A01FC011782F2
S1130A901682838181FF29C3AE014F5F5F4F3A0104
S1130AA0F6019381F40193FD859193FF81914F01A8
S1130AB0882309F416C3853239F493FD859193FF95
S1130AC081914F01853231F4B60190E041D4520155
S1130AD02501E6CF10E0F12C20E02032A0F48B3287
S1130AE069F030F4803259F0833269F420612CC00B
S1130AF08D3239F0803339F4216026C022602460BD
S1130B0023C0286021C027FD27C030ED380F3A30BC
S1130B1078F426FF06C0FAE01F9F300D1124132F2E
S1130B2013C04AE0F49E300D1124F32E20620CC051
S1130B308E3221F426FDD5C2206406C08C3611F411
S1130B40206802C0883641F4F40193FD859193FF37
S1130B5081914F018111C1CF9BEB980F933018F411
S1130B602061805E06C09BE9980F933008F064C151
S1130B702F7E26FF16E02F73322E853619F420645B
S1130B80322E08C0863621F4F22FF0683F2E02C0C0
S1130B901111115037FE07C01C3350F4EE24E394B6
S1130BA0E10E27E00BC0183038F027E017E005C04D
S1130BB027E04CE3E42E02C0212FE12C520144E053
S1130BC0A40EB11CF20160817181828193810E2D8A
S1130BD0A301D0D22C01098100FF02C003FF07C08A
S1130BE031FC08C032FE09C030E2232E07C02DE2DA
S1130BF0222E04C09BE2292E01C0212C802F8C7050
S1130C0019F0211051C28DC237FE0FC0E40C04FF4D
S1130C1004C08A81813309F4EA941E1474F5F8E05F
S1130C20FE1578F588E0E82E2CC036FC2AC0812F0A
S1130C3090E0841595059CF02CEF42162FEF520698
S1130C4074F0432D4068342E0AC0E2E0F0E0EC0F6B
S1130C50FD1FE10FF11D8081803319F41150111132
S1130C60F4CF37FE0EC0EE24E394E10E812F90E022
S1130C70481659062CF4141904C0EE24E39401C058
S1130C8010E037FE06C01414150434F4C2010196B2
S1130C9005C085E090E002C081E090E0211001965B
S1130CA0112331F0212F30E02F5F3F4F820F931F2C
S1130CB02F2D30E08217930714F4F81A01C0F12C99
S1130CC0832D897041F4FF2031F0B60180E290E079
S1130CD03FD3FA94F8CF222021F0B601822D90E080
S1130CE037D333FC08C0FF2031F0B60180E390E035
S1130CF02FD3FA94F8CF37FE58C0942D852D57FE84
S1130D0002C090E080E0292E382E20E030E0A201DD
S1130D104E1951095D874C87A201421953095F8717
S1130D204E87612F70E044275527461B570B598B7C
S1130D30488B5FEF2516350641F4B6018EE290E04C
S1130D402A8B3B8B05D33B892A89421453046CF0CC
S1130D504C855D854215530544F4EE85FF85E20F0D
S1130D60F31FE60DF71D818101C080E351E0251AD0
S1130D7031082F5F3F4F488959892416350644F0BE
S1130D80B60190E02A8B3B8BE3D22A893B89D1CFF1
S1130D902414350439F49A81963318F4953311F4F4
S1130DA004FF81E3B60190E045C08A81813309F0F4
S1130DB00F7EB60190E0CCD2111105C034FC16C0F0
S1130DC085E690E015C0B6018EE290E0C1D282E0E3
S1130DD0EE24E394E80EF301E80FF11D8081B601DF
S1130DE090E0B6D211508E2D99F7E8CF85E490E0CB
S1130DF0B601AED257FC05C04114510439F404FFC6
S1130E0005C05194419451088DE201C08BE2B601B2
S1130E1090E09ED280E39AE0491651042CF08F5F53
S1130E205AE0451A5108F7CFB60190E091D2B601C5
S1130E30C201C0968DD24CC1833631F0833779F02C
S1130E40833509F054C020C05201E2E0AE0EB11C5B
S1130E50F2018081898301E010E0230113C0520173
S1130E60F2E0AF0EB11CF2014080518026FF03C0B6
S1130E70612F70E002C06FEF7FEFC2012A8B5DD259
S1130E808C012A892F7714C05201F2E0AF0EB11CF5
S1130E90F2014080518026FF03C0612F70E002C040
S1130EA06FEF7FEFC2012A8B3DD28C012A89206823
S1130EB0322E23FD18C08F2D90E00817190798F4DF
S1130EC0B60180E290E044D2FA94F5CFF20137FC07
S1130ED0859137FE81912F01B60190E039D2F1104E
S1130EE0FA94015011090115110581F7F1C08436F6
S1130EF011F0893651F5520127FF09C0F4E0AF0E15
S1130F00B11CF20160817181828193810AC0F2E097
S1130F10AF0EB11CF20160817181072E000C880BA9
S1130F20990B2F76322E97FF09C090958095709576
S1130F3061957F4F8F4F9F4F2068322E2AE030E01B
S1130F40A3013ED2E82EE6183EC0022F853721F4D5
S1130F500F7E2AE030E01DC0097F8F3691F018F42F
S1130F60883559F0BEC0803719F0883711F0B9C000
S1130F70006104FF09C0046007C024FF08C00660C4
S1130F8006C028E030E005C020E130E002C020E1E6
S1130F9032E0520107FF09C0F4E0AF0EB11CF201C8
S1130FA0608171818281938108C0F2E0AF0EB11C2F
S1130FB0F2016081718180E090E0A30101D2E82E0A
S1130FC0E6180F77302E36FE0BC0332D3E7FE11628
S1130FD050F434FE0AC032FC08C0332D3E7E05C0F6
S1130FE00E2D332D03C00E2D01C0012F34FF0CC074
S1130FF0FE01EE0DF11D8081803311F4397E08C0AD
S113100032FF05C00E5F04C0832F867809F00F5F9E
S113101033FD12C030FF06C01E2D0F1518F41F0D2E
S1131020101B0F2D0F1560F4B60180E290E03B8B8E
S11310308FD10F5F3B89F6CF0F1510F4F01A01C062
S1131040F12C34FF11C0B60180E390E03B8B80D1DA
S11310503B8932FF16C031FD03C088E790E002C02F
S113106088E590E0B6010CC0832F867851F031FFFB
S113107002C08BE201C080E237FD8DE2B60190E050
S113108067D1E11630F4B60180E390E061D11150EC
S1131090F8CFEA94F301EE0DF11D8081B60190E0E2
S11310A057D1E110F6CF14C0F4E0FF1548F584E001
S11310B0F81A33FE1DC0211024C003FF27C007EA1D
S11310C013E0F32DF0713F2EF8018491811121C0BA
S11310D0FF2009F4FDCCB60180E290E039D1FA9406
S11310E0F7CFF6018681978123C08FEF9FEF20C051
S11310F0B60180E290E02CD1FA94F110F9CFDBCF65
S1131100F12CB601822D90E023D1D7CF0BEA13E066
S1131110D8CF31108052B60190E01AD10F5F1F4F23
S1131120D3CF23E02F1510F483E0C2CFF12CC5CF29
S113113063960FB6F894DEBF0FBECDBFDF91CF919B
S11311401F910F91FF90EF90DF90CF90BF90AF90E1
S11311509F908F907F906F905F904F903F902F90D3
S11311600895EE0FFF1F0024001C0BBE0790F6919C
S1131170E02D0994283008F027E03327DA01990F8D
S1131180311D87FD916000966105710539F4326067
S11311902E5F3D9330E32A95E1F708959F3F30F0A9
S11311A080387105610509F03C5F3C5F3D939130E7
S11311B008F08068911DDF93CF931F930F93FF92E4
S11311C0EF92192F987F9695E92F96959695E90FAA
S11311D0FF27E75FFB4F99273327EE24FF24A7015E
S11311E0E70105900894079428F4360FE71EF81ECB
S11311F0491F511D660F771F881F991F0694A1F779
S11312000590079428F4E70EF81E491F561FC11DC8
S1131210770F881F991F661F0694A1F705900794FE
S113122028F4F80E491F561FC71FD11D880F991F98
S1131230661F771F0694A1F70590079420F4490FC1
S1131240561FC71FD81F990F661F771F881F069444
S1131250A9F784911095177041F0D695C7955795C5
S11312604795F794E7941A95C1F7EFEAF3E0689489
S11312701590159135916591959105907FE273953F
S1131280E118F10A430B560BC90BD009C0F7E10C66
S1131290F11E431F561FC91FD01D7EF4703311F475
S11312A08A95E6CFE894015030F0080F0AF400273D
S11312B0021708F4202F2395022F7A3328F079E3BC
S11312C07D932A95E9F710C07D932A9589F60694B3
S11312D097956795379517951794E118F10A430B7D
S11312E0560BC90BD00998F023957E9173957A33E8
S11312F008F070E37C932013B8F77E9170617D93BE
S113130030F0839571E37D9370E32A95E1F711241E
S1131310EF90FF900F911F91CF91DF91992787FD57
S113132090950895FC010590615070400110D8F724
S1131330809590958E0F9F1F0895FC016150704019
S113134001900110D8F7809590958E0F9F1F0895F6
S11313500F931F93CF93DF93FB01238121FD03C0E0
S11313608FEF9FEF28C022FF16C04681578124814A
S113137035814217530744F4A081B1819D012F5F49
S11313803F4F318320838C93268137812F5F3F4FDA
S11313903783268310C0EB01092F182F0084F185B1
S11313A0E02D0995892BE1F68E819F8101969F831B
S11313B08E83812F902FDF91CF911F910F910895EC
S11313C0FA01AA27283051F1203181F1E8946F9372
S11313D06E7F6E5F7F4F8F4F9F4FAF4FB1E03ED018
S11313E0B4E03CD0670F781F891F9A1FA11D680FB6
S11313F0791F8A1F911DA11D6A0F711D811D911DE9
S1131400A11D20D009F468943F912AE0269F11245D
S11314103019305D3193DEF6CF010895462F4770C1
S1131420405D4193B3E00FD0C9F7F6CF462F4F701C
S1131430405D4A3318F0495D31FD4052419302D07A
S1131440A9F7EACFB4E0A695979587957795679520
S1131450BA95C9F700976105710508959B01AC0120
S11314600A2E06945795479537952795BA95C9F747
S1131470620F731F841F951FA01D0895F894FFCF5A
S11314807B23407D007B23407D47657441444300BA
S11314907B23407D536574444143007B23407D534B
S11314A065745357007B23407D53657452656C61AA
S11314B0794F4E007B23407D53657452656C61798E
S11314C04F4646007B23407D4765745665727369B9
S11314D06F6E004572726F7220556E646566696E38
S11314E06564436F6D6D616E64004572726F722046
S11314F04672616D65004572726F72204368656360
S11315006B73756D004572726F7220496E76616CF3
S11315106964506172616D6574657273004A5549FE
S113152043452F5357492F5053552F484B2F444D64
S11315300A4547534520754320536F66747761729B
S1131540650A56657273696F6E3A00302E320A442A
S11315506174653A20323031372D30342D31390AF7
S1131560417574686F723A2050696F7472204B75BC
S11315706C69676F77736B690A00436F6D70616E96
S1131580793A2053706163652052657365617263B3
S1131590682043656E74726520506F6C69736820AF
S11315A041636164656D7900206F662053636965EA
S11315B06E6365730A00436865636B53756D0A0057
S9030000FC
